:020000000A28CC
:10000800FE00030EF0000A08F100F1280B28112168
:10001800FC001221FD00F701F801F901FA01FB01CA
:10002800830116280730831203139F0083160313D6
:100038000514013086008113811281110115811484
:1000480001148312031381010B118B160B168B10ED
:100058008B170612861686100615D1207908031903
:10006800362837285C28F901770803193C283D28E9
:100078005C287D080319412842284F2805307A0258
:10008800031C472848285C2883120313861406118A
:10009800FD01FA015C280F307A02031C5428552808
:1000A8005C2883120313861006150130FD00FA013F
:1000B80078080319602861287C28F8014130F60087
:1000C800EE30F500F50B6628F60B66280000831263
:1000D80003130618702871287C287C0803197528D2
:1000E80076287928B020FC017C28D1200130FC003A
:1000F800831203130518812882289C287708031D7A
:10010800862887289C280130F700061286167C0866
:10011800031D8F2890289328D1200130FC00FA0174
:10012800FB0183120313861006150130FD003228E7
:10013800051C9F28A02832287703031DA428A5287A
:100148003228F70106168612B020FC018312031329
:100158008614061132280A28F4018312031386151F
:100168000330F3009730F200F20BB828F30BB828ED
:10017800BD288312031386111830F3005F30F20094
:10018800F20BC428F30BC4280130F4073230740290
:10019800031CCF28D028B1280800F40183120313C8
:1001A8008615C730F200D828F20BD728DB28DC28C0
:1001B8008312031386111930F300AB30F200F20BEF
:1001C800E328F30BE328E8280130F40732307402FF
:1001D800031CEF28F028D22808000B1DF428F52866
:1001E80003290B110130FB0710307B02031CFD288B
:1001F800FE280329FB010130FA070130F9008B1CA6
:10020800062907290A298B100130F80071088A008D
:0E021800700E8300FE0E7E0E090001340134CC
:02400E00503F21
:00000001FF
